:100C06000A2041544D454C20415438395335312042
:100C1600000A2020204D6F6E69746F72200A0A0048
:100C2600438920758DFA858D8B43884043985043C0
:050C36008780D2992225
:100BE400120C26D2AC7BFF7A0C79061200657BFFCF
:100BF4007A0C7917120065120C62EF60FA1208EA97
:020C040080F579
:10035F000D0A3D3D3D3D3D3D3D3D3D3D3D3D3D3D21
:10036F003D3D3D3D3D3D3D3D3D3D3D3D3D3D3D3DAE
:10037F003D3D3D3D3D3D3D3D3D3D3D3D3D3D3D3D9E
:10038F003D3D3D3D3D3D3D3D3D3D3D3D3D3D3D3D8E
:10039F003D000D0A000D0A3D3D3D3D3D3D3D3D3DBE
:1003AF003D3D3D3D3D3D3D3D3D3D3D3D3D3D3D3D6E
:1003BF003D3D3D3D3D3D3D3D3D3D3D3D3D3D3D3D5E
:1003CF003D3D3D3D3D3D3D3D3D3D3D3D3D3D3D3D4E
:1003DF003D3D3D3D3D3D3D3D3D3D3D000D0A3E3EDC
:1003EF003E202020202020202020202020202057A9
:1003FF00656C636F6D6520746F20586D6F64652039
:10040F004D6F6E69746F72202052657620312E30D9
:10041F003020202020202020202020202020203CA1
:10042F003C3C000D0A202020636C65616E2020206B
:10043F002020202020202020202020203B20636C03
:10044F0065616E2053637265616E2020202020202D
:10045F00202020202020202020202020202020208D
:10046F0020636C7320000D0A202020616363657385
:10047F007320202020202020202020202020203BFF
:10048F002050726F6772616D2041636365737320D3
:10049F004F46462F4F4E2020202020202020202066
:1004AF002020202061636320000D0A202020686532
:1004BF006C70202020202020202020202020202091
:1004CF0020203B2053686F772048454C5020202038
:1004DF00202020202020202020202020202020200D
:1004EF00202020202020203F2026206820000D5093
:1004FF00726F6D70743A3E000D25643A25730A00D1
:10050F00636C65616E00636C730061636365737325
:10051F0000616363000D416363657373203D204584
:10052F006E61626C65204C4F57200A000D4163636A
:10053F00657373203D2044697361626C652048497F
:10054F00200A0068656C70003F0068000D547970D8
:10055F0065206E756C6C200A000000000000000022
:10056F00000000000000000000000000000000007C
:10057F00000000000000000000000000000000006C
:05058F00000000000067
:100594007BFF7A03795F1200657BFF7A0379A112EE
:1005A40000657BFF7A0379A11200657BFF7A0379EA
:1005B400A11200657BFF7A0379A11200657BFF7AA3
:1005C4000379A11200657BFF7A0379A11200657B90
:1005D400FF7A0379A11200657BFF7A0379A11200E7
:1005E400657BFF7A0379A11200657BFF7A0379A109
:1005F4001200657BFF7A0379A11200657BFF7A0301
:1006040079A11200657BFF7A0379A11200657BFF53
:100614007A0379A11200657BFF7A0379A112006540
:100624007BFF7A0379A11200657BFF7A0379A1121B
:1006340000657BFF7A0379A11200657BFF7A037959
:10064400A11200657BFF7A0379A11200657BFF7A12
:100654000379A11200657BFF7A0379A11200657BFF
:10066400FF7A0379A11200657BFF7A0379A1120056
:10067400657BFF7A0379A11200657BFF7A0379A178
:100684001200657BFF7A0379A11200657BFF7A0370
:1006940079A11200657BFF7A0379A11200657BFFC3
:1006A4007A0379A11200657BFF7A0379A1120065B0
:1006B4007BFF7A0379A11200657BFF7A0379A1128B
:1006C40000657BFF7A0379A11200657BFF7A0379C9
:1006D400A11200657BFF7A0379A11200657BFF7A82
:1006E4000379A11200657BFF7A0379A11200657B6F
:1006F400FF7A0379A11200657BFF7A0379A11200C6
:10070400657BFF7A0379A11200657BFF7A0379A1E7
:100714001200657BFF7A0379A11200657BFF7A03DF
:1007240079A11200657BFF7A0379A11200657BFF32
:100734007A0379A11200657BFF7A0379A10200652F
:100B6C007BFF7A0379A41200657BFF7A0379EB1281
:100B7C0000657BFF7A0379A41200657BFF7A047908
:100B8C00321200657BFF7A0479751200657BFF7A5F
:100B9C000479B81200657BFF7A0379A11200657B9A
:100BAC00FF7A0379A41200657BFF7A0379A1020016
:010BBC0065D3
:100A260090002CEBF0A3EAF0A3E9F0A3ECF0A3ED21
:010A3600F0CF
:100A3700E4900033F0A3F0900030E024FFFF900033
:100A47002FE034FFFEC3900034E09FEE6480F890FF
:100A57000033E0648098504D120C3BEF3395E0FE75
:100A6700900031F0A3EFF0F47002EEF460379000DD
:100A770031E0FEA3E0FF640A4E602A90002CE0FB01
:100A8700A3E0FAA3E0F9900033E0FCA3E0F5828C41
:100A970083EF12083A900034E004F0709A90003324
:100AA700E004F08092900031E0FEA3E0FF640A4E7C
:100AB700702890002CE0FBA3E0FAA3E0F990003344
:100AC700E0FCA3E0F5828C83EF12083A900034E053
:100AD70004F07006900033E004F090002CE0FBA3D4
:100AE700E0FAA3E0F9900033E0FEA3E0FFF5828E81
:050AF70083E412083A3F
:010AFC0022D7
:060C6200A298E433FF221A
:1008EA0078007C007D017BFF7A0579687E007F169F
:1008FA0012081478167C007D017BFF7A05797E7ECA
:10090A00007F161208147BFF7A0479FD1200657BBA
:10091A00017A0079007D167C00120A26EF24FFF581
:10092A000CEE34FFF50B750D01750E00750F007B8B
:10093A00FF7A057907120065750BFF750C05750DB1
:10094A000F750E00750F057B017A007900120AFDFA
:10095A00EF601B750BFF750C05750D15750E00758F
:10096A000F037B017A007900120AFDEF700302057A
:10097A0094750BFF750C05750D19750E00750F062C
:10098A007B017A007900120AFDEF601B750BFF7577
:10099A000C05750D20750E00750F037B017A007921
:1009AA0000120AFDEF701730090AC2097BFF7A05A7
:1009BA0079248064D2097BFF7A05793B805A750BCA
:1009CA00FF750C05750D52750E00750F047B017AC3
:1009DA00007900120AFDEF6036750BFF750C05757C
:1009EA000D57750E00750F017B017A007900120A06
:1009FA00FDEF601B750BFF750C05750D59750E0023
:100A0A00750F017B017A007900120AFDEF7003026B
:0B0A1A000B6C7BFF7A05795B12006516
:010A250022AE
:03000000020C4CA3
:0C0C4C00787FE4F6D8FD758121020BE4EE
:10074400E709F608DFFA8046E709F208DFFA803E97
:1007540088828C83E709F0A3DFFA8032E309F60884
:10076400DFFA8078E309F208DFFA807088828C83EC
:10077400E309F0A3DFFA806489828A83E0A3F608A0
:10078400DFFA805889828A83E0A3F208DFFA804C7A
:1007940080D280FA80C680D4806980F28033801051
:1007A40080A680EA809A80A880DA80E280CA8033BA
:1007B40089828A83ECFAE493A3C8C582C8CCC58332
:1007C400CCF0A3C8C582C8CCC583CCDFE9DEE78002
:1007D4000D89828A83E493A3F608DFF9ECFAA9F081
:1007E400EDFB2289828A83ECFAE0A3C8C582C8CCD7
:1007F400C583CCF0A3C8C582C8CCC583CCDFEADEF0
:10080400E880DB89828A83E493A3F208DFF980CC51
:1008140088F0EF60010E4E60C388F0ED2402B4044A
:100824000050B9F582EB2402B4040050AF232345F1
:060834008223900794737B
:10083A00F8BB010DE58229F582E5833AF583E8F0F4
:10084A00225006E92582C8F622BBFE05E92582C8A0
:02085A00F22288
:10000300E517240BF8E60517227808300702780B6A
:10001300E475F0011208B402085C2000EB7F2ED2D5
:10002300008018EF540F2490D43440D4FF30040BD5
:10003300EF24BFB41A0050032461FFE518600215D2
:1000430018051BE51B7002051A30070D7808E475C7
:10005300F0011208B4EF0208A2020BBD7403D20729
:100063008003E4C207F5178B088A09890AE4F518A7
:10007300F51AF51BE51860077F2012003E80F57521
:1000830019FFC201C200C202C203C205C206C208EE
:1000930012000CFF700D3007057F0012004FAF1BDD
:1000A300AE1A22B4255FC2D5C20412000CFF24D0BD
:1000B300B40A00501A75F00A781830D50508B6FF4F
:1000C3000106C6A426F620D5047002D20380D924E3
:1000D300CFB41A00EF5004C2E5D20402024FD2019A
:1000E30080C6D20080C0D20280BCD2D580BAD205ED
:1000F30080B47F2012003E2002077401B51800402F
:10010300F1120003FF12003E020077D208D20680EC
:1001130095120003FB120003FA120003F94A4B7015
:100123000679207A037BFF20022EE518602A7E00E1
:100133008E8275830012087560060EEE651970F0E5
:10014300C2D5EBC0E0EAC0E0E9C0E0EE120296D00F
:10015300E0F9D0E0FAD0E0FB12085CFF60AAEBC044
:10016300E0EAC0E0E9C0E012003ED0E02401F9D0AB
:10017300E03400FAD0E0FBE5190460DCD519D9803E
:10018300877BFF7A027992D202809C791080027970
:1001930008C206C2088008D2D5790A8004790AC247
:1001A300D5E519047002F519E4FAFDFEFF12000308
:1001B300FC7B08200113120003FD7B1030000A12A0
:1001C3000003FE120003FF7B20EC3382D592D5504F
:1001D30013C3E43000069FFFE49EFEE42001039D69
:1001E300FDE49CFCE4CBF8C201EC700CCFCECDCC8B
:1001F300E824F8F870F38017C3EF33FFEE33FEED16
:1002030033FDEC33FCEB33FB994002FB0FD8E9EBF6
:10021300300105F8D0E0C448B201C0E00AEC4D4E0D
:100223004F78207B0070C2EAB5190040BCC0E012D1
:100233000298D0F0D0E0200104C4C0E0C4B201C0F1
:10024300F0120027D0F0D5F0EB0200771208C401BA
:100253001453018E5800E54C00E14201924F019A7C
:0F02630044019A4900FA4301A0550184460184E1
:100272004501844703405000E92D00ED2E01102B6B
:1002820000F123010E2003292A00A94800000108D9
:100292003F3F3F00790AA2D5200314300509B91067
:1002A200020404B9080104A2D52006025001042068
:1002B20002689202B518005034C0E07F2030031962
:1002C2007F30A20272067205500F1202EFC202C202
:1002D20006C205C2087F30800F300503E9C0E01274
:1002E200003E300503D0E0F9D0E0B518CC30051758
:1002F2007F30B9100C12003E7F583004077F78809F
:1003020003B9080312003E3002057F2D02003E7F32
:10031200202008F87F2B2006F322920280CF286E3D
:10032200756C6C2900D2011200033001F8C2017809
:100332001830D50108F60200A92D50434958120081
:10034200032403B405004001E490033B9312002F01
:0D035200743A12002FD20375180402018EB8
:100C3B00100A0B120C58BF0D027F0A020BBDAF1C22
:010C4B002286
:100AFD008B088A09890AAB0BAA0CA90D12085CFE9A
:100B0D00AB08AA09A90A12085CFF6E702BEF600DE5
:100B1D00E50F150F7002150E14450E70037F0022A0
:100B2D007401250AF50AE43509F5097401250DF559
:100B3D000DE4350CF50C80BEAB08AA09A90A120804
:100B4D005CFDD3EE6480F8ED64809840037F012254
:0F0B5D00AB0BAA0CA90D12085CFFC3ED9FFF2282
:10085C00BB010689828A83E0225002E722BBFE029A
:09086C00E32289828A83E49322CD
:10087500BB010CE58229F582E5833AF583E0225038
:1008850006E92582F8E622BBFE06E92582F8E22282
:0D089500E58229F582E5833AF583E493229C
:1008A200BB010689828A83F0225002F722BBFE0135
:0208B200F3222F
:1008B400FAE6FB0808E6F925F0F618E6CA3AF62245
:1008C400D083D082F8E4937012740193700DA3A3C3
:1008D40093F8740193F5828883E4737402936860D7
:0608E400EFA3A3A380DFD7
:100BBD00EFB40A07740D120BC8740A309811A89976
:100BCD00B8130CC2983098FDA899C298B811F63098
:070BDD0099FDC299F5992270
:0A0C58003098FDAF99C2987E00228B
:00000001FF
