:101110000A2041544D454C20415438395335312033
:10112000000A2020204D6F6E69746F72200A0A0039
:10113000759850438920758DFA858D8B4387804340
:051140008840D2992255
:1010EE001211307BFF7A1179101205DB7BFF7A111A
:1010FE0079211205DBD2AC12116CEF60FA120C41A1
:02110E0080F56A
:100003000D0A3D3D3D3D3D3D3D3D3D3D3D3D3D3D80
:100013003D3D3D3D3D3D3D3D3D3D3D3D3D3D3D3D0D
:100023003D3D3D3D3D3D3D3D3D3D3D3D3D3D3D3DFD
:100033003D3D3D3D3D3D3D3D3D3D3D3D3D3D3D3DED
:100043003D000D0A000D0A3D3D3D3D3D3D3D3D3D1D
:100053003D3D3D3D3D3D3D3D3D3D3D3D3D3D3D3DCD
:100063003D3D3D3D3D3D3D3D3D3D3D3D3D3D3D3DBD
:100073003D3D3D3D3D3D3D3D3D3D3D3D3D3D3D3DAD
:100083003D3D3D3D3D3D3D3D3D3D3D000D0A3E3E3B
:100093003E20202020202020202020202020205708
:1000A300656C636F6D6520746F20586D6F64652098
:1000B3004D6F6E69746F72202052657620312E3039
:1000C3003020202020202020202020202020203C01
:1000D3003C3C000D0A202020636C65616E202020CB
:1000E3002020202020202020202020203B20636C63
:1000F30065616E2053637265616E2020202020208D
:1001030020202020202020202020202020202020EC
:1001130020636C7320000D0A2020206163636573E4
:100123007320202020202020202020202020203B5E
:100133002050726F6772616D204163636573732032
:100143004F46462F4F4E20202020202020202020C5
:100153002020202061636320000D0A202020646991
:1001630073706C6179202020202020202020202003
:1001730020203B20446973706C61792043414E20F9
:10018300494420262044415441202020202020207F
:100193002020202020202064697320000D0A2020C5
:1001A3002068656C70202020202020202020202023
:1001B30020202020203B2053686F772048454C5057
:1001C300202020202020202020202020202020202C
:1001D300202020202020202020203F2026206820AF
:1001E300000D0A202020696E63706167652020205E
:1001F300202020202020202020203B20496E632027
:1002030043414E204368616E6E656C2020202020A0
:100213002020202020202020202020202020206992
:100223007020000D0A20202066696E646368616E89
:100233006E656C2020202020202020203B20536846
:100243006F772043414E2043482E20496E666F202E
:100253005B30202D2031355D2020202020202020E0
:100263002066662020000D0A20202061736332621D
:10027300696E205B30302D66665D20202020203B98
:100283002054797065206173633262696E2054680B
:10029300656E2054797065204E756D2E20202020C8
:1002A3002020202061326220000D0A202020726568
:1002B300736574202020202020202020202020204F
:1002C30020203B20536F66747761726520726573DB
:1002D3006574202020202020202020202020202082
:1002E3002020202020202072737420000D0A20205B
:1002F300207365746368616E6E656C202020202016
:1003030020202020203B20536574204368616E6EBB
:10031300656C202020202020202020202020202049
:100323002020202020202020202073657463682053
:10033300000D0A2020206469736E6F6465742020A9
:10034300202020202020202020203B2044697320CF
:100353004E6F204465746563742053686F77202063
:100363002020202020202020202020202020206446
:100373006E647420000D0A20202063616E6F6E206E
:1003830020202020202020202020202020203B204F
:10039300456E61626C652043414E20202020202061
:1003A300202020202020202020202020202020204A
:1003B30020202063616E6F6E20000D0A20202063D1
:1003C300616E6F66662020202020202020202020C0
:1003D3002020203B2044697361626C652043414EB9
:1003E300202020202020202020202020202020200A
:1003F300202020202020202063616E6F6620000DC6
:100403000A20202063616E74726967676572202019
:1004130020202020202020203B2053686F7720437A
:10042300414E205472696767657220537461747515
:10043300732020202020202020202020206374727D
:100443006720000D0A20202063796373746174753B
:100453007320202020202020202020203B205368B0
:100463006F77204379636C652053746174757320CF
:100473002020202020202020202020202020202079
:1004830020637963737420007374722E2E2E2025DB
:100493007330310A0062696E2E2E2E20257830319A
:1004A3000A000D50726F6D70743A3E000D25643A68
:1004B30025730A00636C65616E00636C730061638E
:1004C3006365737300616363000D416363657373F5
:1004D300203D20456E61626C65204C4F57200A0019
:1004E3000D416363657373203D2044697361626CDE
:1004F30065204849200A006173633262696E0061B6
:100503003262000D6173633262696E20506C656103
:1005130073652054797065204E756D2E0A000D4960
:100523006E7075742043686172204E756D203D2096
:1005330025780A0068656C70003F0068000D5479E7
:100543007065206E756C6C200A00000000000000CE
:100553000000000000000000000000000000000098
:100563000000000000000000000000000000000088
:0605730000000000000082
:100A91007BFF7A0079031205DB7BFF7A007945122F
:100AA10005DB7BFF7A0079451205DB7BFF7A007954
:100AB100451205DB7BFF7A0079451205DB7BFF7A66
:100AC1000079451205DB7BFF7A0079451205DB7B56
:100AD100FF7A0079451205DB7BFF7A007945120523
:100AE100DB7BFF7A0079451205DB7BFF7A007945D4
:100AF1001205DB7BFF7A0079451205DB7BFF7A006B
:100B010079451205DB7BFF7A0079451205DB7BFF16
:100B11007A0079451205DB7BFF7A0079451205DB06
:100B21007BFF7A0079451205DB7BFF7A007945125C
:100B310005DB7BFF7A0079451205DB7BFF7A0079C3
:100B4100451205DB7BFF7A0079451205DB7BFF7AD5
:100B51000079451205DB7BFF7A0079451205DB7BC5
:100B6100FF7A0079451205DB7BFF7A007945120592
:100B7100DB7BFF7A0079451205DB7BFF7A00794543
:100B81001205DB7BFF7A0079451205DB7BFF7A00DA
:100B910079451205DB7BFF7A0079451205DB7BFF86
:100BA1007A0079451205DB7BFF7A0079451205DB76
:100BB1007BFF7A0079451205DB7BFF7A00794512CC
:100BC10005DB7BFF7A0079451205DB7BFF7A007933
:100BD100451205DB7BFF7A0079451205DB7BFF7A45
:100BE1000079451205DB7BFF7A0079451205DB7B35
:100BF100FF7A0079451205DB7BFF7A007945120502
:100C0100DB7BFF7A0079451205DB7BFF7A007945B2
:100C11001205DB7BFF7A0079451205DB7BFF7A0049
:100C210079451205DB7BFF7A0079451205DB7BFFF5
:100C31007A0079451205DB7BFF7A0079450205DBF5
:100ECF007BFF7A0079481205DB7BFF7A00798F125E
:100EDF0005DB7BFF7A0079481205DB7BFF7A00790F
:100EEF00D61205DB7BFF7A0179191205DB7BFF7ABE
:100EFF0001795C1205DB7BFF7A01799F1205DB7BA1
:100F0F00FF7A0179E41205DB7BFF7A02792612055D
:100F1F00DB7BFF7A0279691205DB7BFF7A0279AC02
:100F2F001205DB7BFF7A0279EF1205DB7BFF7A0379
:100F3F0079341205DB7BFF7A0379781205DB7BFFAF
:100F4F007A0379BD1205DB7BFF7A0479021205DB88
:100F5F007BFF7A0479461205DB7BFF7A0079451215
:100F6F0005DB7BFF7A0079481205DB7BFF7A00797E
:040F7F00450205DB47
:10109200EFC39430400CEFD394395006C3EF943031
:1010A200FF22EFC39461400BEFD394665005EF2407
:1010B200A9FF22EFC39441400BEFD394465005EFB2
:0510C20024C9FF2222F9
:0B0F830090002EEBF0A3EAF0A3E9F0D1
:100F8E00A3E0F9A3E0FAA3E0A3C9F0A3EAF0A3E972
:100F9E00F090002EE0FBA3E0FAA3E0F91209CBFFDC
:100FAE0060636420605FEF640A605A1210929000D2
:100FBE0031E0FBA3E0FAA3E0F9EF1209E490002E72
:100FCE00E0FBA3E0FAA3E08B0B8A0CF50D7BFF7A16
:100FDE0004798B1205DB900031E0FBA3E0FAA3E06D
:100FEE008B0B8A0CF50D7BFF7A0479981205DB903A
:100FFE00002FE475F001120A18900032E475F0012A
:10100E00120A18808C900031E0FBA3E0FAA3E0F9FD
:05101E00740A0209E460
:0A0DEE007B017A0079007D167C007D
:100DF80090002EEBF0A3EAF0A3E9F0A3ECF0A3ED4A
:010E0800F0F9
:100E0900E4900035F0A3F0900032E024FFFF900059
:100E190031E034FFFEC3900036E09FEE6480F89025
:100E29000035E0648098504D121145EF3395E0FE8E
:100E3900900033F0A3EFF0F47002EEF46037900005
:100E490033E0FEA3E0FF640A4E602A90002EE0FB27
:100E5900A3E0FAA3E0F9900035E0FCA3E0F5828C69
:100E690083EF1209F6900036E004F0709A9000358D
:100E7900E004F08092900033E0FEA3E0FF640A4EA4
:100E8900702890002EE0FBA3E0FAA3E0F99000356A
:100E9900E0FCA3E0F5828C83EF1209F6900036E0BE
:100EA90004F07006900035E004F090002EE0FBA3FA
:100EB900E0FAA3E0F9900035E0FEA3E0FFF5828EA9
:050EC90083E41209F6AC
:010ECE002201
:06116C00A298E433FF220B
:100C410078007C007D017BFF7A05794D7E007F165F
:100C51001209A578167C007D017BFF7A0579637EF8
:100C6100007F161209A57BFF7A0479A51205DB1214
:100C71000DEE90002CEEF0A3EFF024FFF50CEE3416
:100C8100FFF50B750D01750E00750F007BFF7A04E2
:100C910079AF1205DB750BFF750C04750DB7750E79
:100CA10000750F057B017A007900121023EF601B9C
:100CB100750BFF750C04750DBD750E00750F037B6B
:100CC100017A007900121023EF7003020A91750B6B
:100CD100FF750C04750DC1750E00750F067B017A49
:100CE100007900121023EF601B750BFF750C047562
:100CF1000DC8750E00750F037B017A007900121083
:100D010023EF701930090BC2097BFF7A0479CC02F9
:100D11000DEAD2097BFF7A0479E3020DEA750BFF34
:100D2100750C04750DFA750E00750F077B017A00BD
:100D31007900121023EF601B750BFF750C05750D03
:100D410002750E00750F037B017A007900121023E2
:100D5100EF703C7BFF7A0579061205DB120DEE90F0
:100D6100002CEEF0A3EFF09000317401F0A37400B9
:100D7100F0A37416F07B017A007900120F83750BD2
:100D810001750C00750D167BFF7A057921805A7566
:100D91000BFF750C05750D37750E00750F047B0182
:100DA1007A007900121023EF6036750BFF750C0580
:100DB100750D3C750E00750F017B017A00790012EB
:100DC1001023EF601B750BFF750C05750D3E750E3D
:100DD10000750F017B017A007900121023EF700377
:0C0DE100020ECF7BFF7A0579401205DB83
:010DED0022E3
:0300000002115694
:0C115600787FE4F6D8FD7581210210EED0
:1008D500E709F608DFFA8046E709F208DFFA803E05
:1008E50088828C83E709F0A3DFFA8032E309F608F2
:1008F500DFFA8078E309F208DFFA807088828C835A
:10090500E309F0A3DFFA806489828A83E0A3F6080D
:10091500DFFA805889828A83E0A3F208DFFA804CE7
:1009250080D280FA80C680D4806980F280338010BE
:1009350080A680EA809A80A880DA80E280CA803327
:1009450089828A83ECFAE493A3C8C582C8CCC5839F
:10095500CCF0A3C8C582C8CCC583CCDFE9DEE7806F
:100965000D89828A83E493A3F608DFF9ECFAA9F0EE
:10097500EDFB2289828A83ECFAE0A3C8C582C8CC44
:10098500C583CCF0A3C8C582C8CCC583CCDFEADE5D
:10099500E880DB89828A83E493A3F208DFF980CCBF
:1009A50088F0EF60010E4E60C388F0ED2402B404B8
:1009B5000050B9F582EB2402B4040050AF2323455F
:0609C50082239009257356
:1009CB00BB010689828A83E0225002E722BBFE022A
:0909DB00E32289828A83E493225D
:1009E400BB010689828A83F0225002F722BBFE01F2
:0209F400F322EC
:1009F600F8BB010DE58229F582E5833AF583E8F037
:100A0600225006E92582C8F622BBFE05E92582C8E2
:020A1600F222CA
:100A1800C5F0F8A3E028F0C5F0F8E5821582700269
:060A28001583E038F02206
:10057900E517240BF8E60517227808300702780BEF
:10058900E475F001120A5B0209CB2000EB7F2ED241
:10059900008018EF540F2490D43440D4FF30040B5A
:1005A900EF24BFB41A0050032461FFE51860021557
:1005B90018051BE51B7002051A30070D7808E4754C
:1005C900F001120A5BEF0209E40210C77403D207B3
:1005D9008003E4C207F5178B088A09890AE4F5182C
:1005E900F51AF51BE51860077F201205B480F5752B
:1005F90019FFC201C200C202C203C205C206C20873
:10060900120582FF700D3007057F001205C5AF1B6B
:10061900AE1A22B4255FC2D5C204120582FF24D0C6
:10062900B40A00501A75F00A781830D50508B6FFD3
:100639000106C6A426F620D5047002D20380D92467
:10064900CFB41A00EF5004C2E5D2040207C5D201A3
:1006590080C6D20080C0D20280BCD2D580BAD20571
:1006690080B47F201205B42002077401B518004038
:10067900F1120579FF1205B40205EDD208D2068000
:1006890095120579FB120579FA120579F94A4B7029
:100699000679967A087BFF20022EE518602A7E00EB
:1006A9008E82758300120A2E60060EEE651970F0AF
:1006B900C2D5EBC0E0EAC0E0E9C0E0EE12080CD018
:1006C900E0F9D0E0FAD0E0FB1209CBFF60AAEBC059
:1006D900E0EAC0E0E9C0E01205B4D0E02401F9D0B5
:1006E900E03400FAD0E0FBE5190460DCD519D980C3
:1006F900877BFF7A087908D202809C791080027979
:1007090008C206C2088008D2D5790A8004790AC2CB
:10071900D5E519047002F519E4FAFDFEFF12057911
:10072900FC7B08200113120579FD7B1030000A12A9
:100739000579FE120579FF7B20EC3382D592D550DD
:1007490013C3E43000069FFFE49EFEE42001039DED
:10075900FDE49CFCE4CBF8C201EC700CCFCECDCC0F
:10076900E824F8F870F38017C3EF33FFEE33FEED9A
:1007790033FDEC33FCEB33FB994002FB0FD8E9EB7B
:10078900300105F8D0E0C448B201C0E00AEC4D4E92
:100799004F78207B0070C2EAB5190040BCC0E01256
:1007A900080ED0F0D0E0200104C4C0E0C4B201C0FA
:1007B900F012059DD0F0D5F0EB0205ED120A6B069B
:1007C9008A53070458065B4C06574207084F07101F
:0F07D9004407104906704307165506FA4606FAFC
:1007E8004506FA4708B650065F2D06632E06862B87
:1007F800066723068420089F2A061F480000067EF5
:100808003F3F3F00790AA2D5200314300509B910EB
:10081800020404B9080104A2D520060250010420EC
:1008280002689202B518005034C0E07F20300319E6
:100838007F30A20272067205500F120865C202C20A
:1008480006C205C2087F30800F300503E9C0E012F8
:1008580005B4300503D0E0F9D0E0B518CC30051761
:100868007F30B9100C1205B47F583004077F7880A8
:1008780003B908031205B43002057F2D0205B47FC1
:10088800202008F87F2B2006F322920280CF286EC2
:10089800756C6C2900D2011205793001F8C2017813
:1008A8001830D50108F602061F2D50434958120585
:1008B800792403B405004001E49008B1931205A51A
:0D08C800743A1205A5D20375180402070446
:10114500100A0B121162BF0D027F0A0210C7AF1CF5
:011155002277
:101023008B088A09890AAB0BAA0CA90D1209CBFEFE
:10103300AB08AA09A90A1209CBFF6E702BEF600D4A
:10104300E50F150F7002150E14450E70037F002275
:101053007401250AF50AE43509F5097401250DF52E
:101063000DE4350CF50C80BEAB08AA09A90A1209D8
:10107300CBFDD3EE6480F8ED64809840037F0122BA
:0F108300AB0BAA0CA90D1209CBFFC3ED9FFF22E7
:100A2E00BB010CE58229F582E5833AF583E022507D
:100A3E0006E92582F8E622BBFE06E92582F8E222C7
:0D0A4E00E58229F582E5833AF583E49322E1
:100A5B00FAE6FB0808E6F925F0F618E6CA3AF6229C
:100A6B00D083D082F8E4937012740193700DA3A31A
:100A7B0093F8740193F5828883E47374029368602E
:060A8B00EFA3A3A380DF2E
:1010C700EFB40A07740D1210D2740A309811A89958
:1010D700B8130CC2983098FDA899C298B811F63089
:0710E70099FDC299F5992261
:0A1162003098FDAF99C2987E00227C
:00000001FF
