:10015900E4FDFCC3ED9FEC9E501AE4FBFAC3EB945B
:1001690078EA940050070BEB70010A80F00DED70EE
:04017900010C80DF16
:01017D00225F
:10000300EF1FAA0670011E4A6013E4FCFDC3ED94C2
:0D00130048EC940050EA0DED70010C80F0F7
:0100200022BD
:10017E00E4FEEEC39F5019E4FDEDC39428500EE447
:10018E00FCECC3947850030C80F70D80EC0E80E2EB
:01019E00223E
:10010200EF1FAA0670011E4A6026E4FCFDC3ED94AF
:100112000AEC940050EAE4FBFAC3EB9448EA940038
:1001220050070BEB70010A80F00DED70010C80DDC1
:0101320022AA
:10013300C2B3C2B47F067E00120102D2B57F107E25
:1001430000120102C2B5C2B3C2B47F107E00120115
:0601530002D2B3D2B42277
:07020400C2B5C200C20122D5
:0C01D0001202041201B912013380FE2259
:0300230002003E9A
:10003E00C0E0C0F0C083C082C0D075D000C000C088
:10004E0001C002C003C004C005C006C007C2AF1085
:10005E00990A859908C298AF081201F4D2AFD00759
:10006E00D006D005D004D003D002D001D000D0D01D
:09007E00D082D083D0F0D0E03232
:03003B0002008739
:10008700C0E0C0F0C083C082C0D075D000C000C03F
:1000970001C002C003C004C005C006C007C2AF103C
:1000A700C10A85C109C2C0AF091201FCD2AFD0078E
:1000B700D006D005D004D003D002D001D000D0D0D4
:0900C700D082D083D0F0D0E032E9
:0C01DC00C2AF8F993099FDC299D2AF22BA
:1001B90075A8D175985075C050758920758DFD75D4
:0701C9008805D28EC2A922B5
:04019F00AD07AC06F6
:1001A3008D828C83E493FE600CAF061201DC0DEDAF
:0501B30070010C80EB5F
:0101B8002224
:1000D000EF540FFDC3940A500674302DFD8004EDDB
:1000E0002437FDEFC4540FFFC3940A500674302F19
:1000F000FF8004EF2437FFEFFE7C00E42DFFEC3E91
:01010000FE00
:0101010022DB
:100026001200D0AD07AC06ECFF1201DCAF051201E1
:01003600DCED
:0100370022A6
:0801F4008FC130C1FDC2C12220
:0801FC008F993099FDC2992290
:030000000201E812
:0C01E800787FE4F6D8FD7581200201D07C
:00000001FF
